:100000001DC02FC02EC02DC02CC02BC02AC029C09F
:1000100028C027C026C025C024C023C022C021C0BC
:1000200020C01FC01EC01DC01CC01BC01AC019C0EC
:1000300018C017C016C015C014C013C011241FBEAD
:10004000CFEFD2E0DEBFCDBF11E0A0E0B1E0E2E64D
:10005000F3E002C005900D92AE31B107D9F71FD180
:100060007EC1CECF8823C1F090E0C29A2FEF3FE946
:1000700045E0215030404040E1F700C00000C29808
:100080002FEF3FE945E0215030404040E1F700C00C
:1000900000009F5F9813E9CF08959091860095FD29
:1000A00006C0E6E8F0E00000908195FFFCCF809369
:1000B00080000895DF98877088578093B000E1EB47
:1000C000F0E080818823ECF7DF9A85E08A95F1F7EC
:1000D0000895DF9880E48093B000E1EBF0E0808148
:1000E0008823ECF7DF9A85E08A95F1F7DF9880ECBA
:1000F0008093B000E1EBF0E080818823ECF790E1A1
:10010000A0EBB0E0E1EBF0E01C9280818823ECF7FB
:100110009150D1F7DF9A85E08A95F1F70895109212
:1001200082008FE58093810088E18093850086E0DE
:1001300080938400D49AD69AD79ADF9AE2EBF0E0C3
:100140008081806480838081806180838081816000
:1001500080838081816080838081806280838081D0
:1001600088608083808184608083B3DF80E0A2DF49
:10017000BA9A83E077DF8EE390DF0895DF9894E406
:100180009093B000E1EBF0E090819923ECF7DF9AD7
:1001900095E09A95F1F7DF988093B000E1EBF0E0FD
:1001A00080818823ECF76093B000E1EBF0E0808180
:1001B0008823ECF7DF9A85E08A95F1F70895E82F18
:1001C000F0E0E050FF4F8081D9DF0895CF92DF92B9
:1001D000FF920F931F93CF93DF93FC01F62EC9017B
:1001E000009709F446C000E010E09801C0E00F2E2F
:1001F000FAE0CF2ED12CF02DB6019DD0A0E0B0E0DA
:100200000C2E04C0880F991FAA1FBB1F0A94D2F797
:10021000080F191F2A1F3B1F862F972FCC5F0097AF
:1002200059F72AC0A02FAF70442319F0481301C01A
:10023000A65FB0E0A85FBE4F9C919993689413F8B5
:1002400036952795179507951694D1F78F5F8830C7
:1002500049F715C09E919F3329F41C928150D1F724
:1002600001C087E0FF2099F0E80FF11D80E4818351
:100270000EC000E010E09801EF0180E0D3CF87814D
:100280008F3379F71782DF01179686E0E3CFDF918E
:10029000CF911F910F91FF90DF90CF900895CF9352
:1002A000DF93CDB7DEB728970FB6F894DEBF0FBE49
:1002B000CDBF35DF29E330E342E060E08E010F5F20
:1002C0001F4FC80183DFC02E912E7E0129E0E20E70
:1002D000F11CB02EDB2C802F8C19F80161918F015D
:1002E0006EDF0E151F05B1F7FFEF2FEF80EEF15017
:1002F00020408040E1F700C0000020E030E05901DC
:100300009FEFA91AB90A42E060E0CE0101965EDFD4
:100310000C2D192D802F8D19F80161918F014FDF60
:100320000E151F05B9F78FEF9FE80197F1F700C091
:1003300000009501E4CFAA1BBB1B51E107C0AA1F17
:10034000BB1FA617B70710F0A61BB70B881F991F76
:100350005A95A9F780959095BC01CD010895F89420
:02036000FFCFCD
:10036200CECCCAC8C6C4C2C03F065B4F666D7D070D
:0E0372007F6FBF86DBCFE6EDFD87FFEF40001B
:00000001FF
